{
  "contractName": "AtomicSwap",
  "abi": [
    {
      "inputs": [
        {
          "name": "_recipient",
          "type": "address"
        },
        {
          "name": "_hash",
          "type": "bytes32"
        }
      ],
      "payable": true,
      "stateMutability": "payable",
      "type": "constructor"
    },
    {
      "constant": false,
      "inputs": [],
      "name": "refund",
      "outputs": [],
      "payable": false,
      "stateMutability": "nonpayable",
      "type": "function"
    },
    {
      "constant": false,
      "inputs": [
        {
          "name": "_secret",
          "type": "bytes32"
        }
      ],
      "name": "withdraw",
      "outputs": [],
      "payable": false,
      "stateMutability": "nonpayable",
      "type": "function"
    }
  ],
  "bytecode": "0x608060405260405160408061020a83398101806040528101908080519060200190929190805190602001909291905050508060005542600155326002558160035550506101b9806100516000396000f30060806040526004361061004c576000357c0100000000000000000000000000000000000000000000000000000000900463ffffffff168063590e1ae3146100515780638e19899e14610068575b600080fd5b34801561005d57600080fd5b50610066610099565b005b34801561007457600080fd5b5061009760048036038101908080356000191690602001909291905050506100ae565b005b610e10600154014210156100a957005b600254ff5b60006002826040516020018082600019166000191681526020019150506040516020818303038152906040526040518082805190602001908083835b60208310151561010f57805182526020820191506020810190506020830392506100ea565b6001836020036101000a0380198251168184511680821785525050505050509050019150506020604051808303816000865af1158015610153573d6000803e3d6000fd5b5050506040513d602081101561016857600080fd5b810190808051906020019092919050505090506000548114191561018857005b600354ff00a165627a7a72305820fe7d124ed3cbc870633ebc78ac16bc42b6a4ee9663477bd21da09ea6fe8962850029",
  "source": "pragma solidity ^0.4.24;\n\ncontract AtomicSwap {\n\n    bytes32 private secretHash;\n    uint256 private createdAt;\n    address private sender;\n    address private recipient;\n\n    constructor (address _recipient, bytes32 _hash) public payable {\n        assembly {\n            sstore(0, _hash)\n            sstore(1, timestamp)\n            sstore(2, origin)\n            sstore(3, _recipient)\n        }\n    }\n\n    function refund() public {\n        assembly {\n            if lt(timestamp, add(sload(1), 3600)) {\n                stop()\n            }\n\n            selfdestruct(sload(2))\n        }\n    }\n\n    function withdraw(bytes32 _secret) public {\n        bytes32 _hash = sha256(abi.encodePacked(_secret));\n\n        assembly {\n            if not(eq(_hash, sload(0))) {\n                stop()\n            }\n\n            selfdestruct(sload(3))\n        }\n    }\n}\n",
  "sourcePath": "/Users/caffeinum/swaps/contracts/AtomicSwap.sol",
  "compiler": {
    "name": "solc",
    "version": "0.4.24+commit.e67f0147.Emscripten.clang"
  },
  "schemaVersion": "2.0.1",
  "updatedAt": "2018-11-13T05:23:25.069Z"
}