{
  "contractName": "MultiAtomicSwap",
  "abi": [
    {
      "inputs": [
        {
          "name": "_recipients",
          "type": "address[]"
        },
        {
          "name": "_values",
          "type": "uint256[]"
        },
        {
          "name": "_hashes",
          "type": "bytes32[]"
        }
      ],
      "payable": true,
      "stateMutability": "payable",
      "type": "constructor"
    },
    {
      "constant": false,
      "inputs": [],
      "name": "refund",
      "outputs": [],
      "payable": false,
      "stateMutability": "nonpayable",
      "type": "function"
    },
    {
      "constant": false,
      "inputs": [
        {
          "name": "_secret",
          "type": "bytes32"
        }
      ],
      "name": "withdraw",
      "outputs": [],
      "payable": false,
      "stateMutability": "nonpayable",
      "type": "function"
    }
  ],
  "bytecode": "0x60806040526040516105f83803806105f88339810180604052810190808051820192919060200180518201929190602001805182019291905050506000806000808551875114151561005057600080fd5b8451875114151561006057600080fd5b8651935060009250600091505b8382101561009e57858281518110151561008357fe5b9060200190602002015183019250818060010192505061006d565b34831415156100ac57600080fd5b336000806101000a81548173ffffffffffffffffffffffffffffffffffffffff021916908373ffffffffffffffffffffffffffffffffffffffff16021790555042600181905550600091505b838210156101ca57868281518110151561010e57fe5b9060200190602002015190506040805190810160405280878481518110151561013357fe5b906020019060200201518152602001868481518110151561015057fe5b9060200190602002015160001916815250600260008373ffffffffffffffffffffffffffffffffffffffff1673ffffffffffffffffffffffffffffffffffffffff168152602001908152602001600020600082015181600001556020820151816001019060001916905590505081806001019250506100f8565b50505050505050610418806101e06000396000f30060806040526004361061004c576000357c0100000000000000000000000000000000000000000000000000000000900463ffffffff168063590e1ae3146100515780638e19899e14610068575b600080fd5b34801561005d57600080fd5b50610066610099565b005b34801561007457600080fd5b5061009760048036038101908080356000191690602001909291905050506101a0565b005b6000809054906101000a900473ffffffffffffffffffffffffffffffffffffffff1673ffffffffffffffffffffffffffffffffffffffff163373ffffffffffffffffffffffffffffffffffffffff161415156100f457600080fd5b610e10600154014211151561010857600080fd5b6000809054906101000a900473ffffffffffffffffffffffffffffffffffffffff1673ffffffffffffffffffffffffffffffffffffffff166108fc3073ffffffffffffffffffffffffffffffffffffffff16319081150290604051600060405180830381858888f19350505050158015610186573d6000803e3d6000fd5b503373ffffffffffffffffffffffffffffffffffffffff16ff5b6000600260003373ffffffffffffffffffffffffffffffffffffffff1673ffffffffffffffffffffffffffffffffffffffff1681526020019081526020016000206000015490506000811115156101f657600080fd5b6002826040516020018082600019166000191681526020019150506040516020818303038152906040526040518082805190602001908083835b6020831015156102555780518252602082019150602081019050602083039250610230565b6001836020036101000a0380198251168184511680821785525050505050509050019150506020604051808303816000865af1158015610299573d6000803e3d6000fd5b5050506040513d60208110156102ae57600080fd5b810190808051906020019092919050505060001916600260003373ffffffffffffffffffffffffffffffffffffffff1673ffffffffffffffffffffffffffffffffffffffff168152602001908152602001600020600101546000191614151561031657600080fd5b600260003373ffffffffffffffffffffffffffffffffffffffff1673ffffffffffffffffffffffffffffffffffffffff168152602001908152602001600020600080820160009055600182016000905550503373ffffffffffffffffffffffffffffffffffffffff166108fc829081150290604051600060405180830381858888f193505050501580156103ae573d6000803e3d6000fd5b5060003073ffffffffffffffffffffffffffffffffffffffff163114156103e8573373ffffffffffffffffffffffffffffffffffffffff16ff5b50505600a165627a7a72305820aabc242e8fdf98618277f90dee60529a22c7be8bda06fa6bcc4e64939e80273a0029",
  "source": "pragma solidity ^0.4.24;\n\ncontract MultiAtomicSwap {\n\n    address sender;\n    uint256 createdAt;\n\n    struct Output {\n        uint256 value;\n        bytes32 hash;\n    }\n\n    mapping(address => Output) outputs;\n\n    constructor (address[] _recipients, uint256[] _values, bytes32[] _hashes) public payable {\n        require(_recipients.length == _values.length);\n        require(_recipients.length == _hashes.length);\n\n        uint256 length = _recipients.length;\n        uint256 sum = 0;\n\n        for (uint256 i = 0; i < length; i++) {\n            sum += _values[i];\n        }\n\n        require(sum == msg.value);\n\n        sender = msg.sender;\n        createdAt = now;\n\n        for (i = 0; i < length; i++) {\n            address recipient = _recipients[i];\n\n            outputs[recipient] = Output(_values[i], _hashes[i]);\n        }\n    }\n\n    function refund() public {\n        require(msg.sender == sender);\n        require(now > createdAt + 1 hours);\n\n        sender.transfer(address(this).balance);\n\n        selfdestruct(msg.sender);\n    }\n\n    function withdraw(bytes32 _secret) public {\n        uint256 value = outputs[msg.sender].value;\n        require(value > 0);\n        require(outputs[msg.sender].hash == sha256(abi.encodePacked(_secret)));\n\n        delete outputs[msg.sender];\n\n        msg.sender.transfer(value);\n\n        if(address(this).balance == 0) {\n            selfdestruct(msg.sender);\n        }\n        // else {\n        //     msg.sender.transfer(value);\n        // }\n    }\n}\n",
  "sourcePath": "/Users/caffeinum/swaps/contracts/MultiAtomicSwap.sol",
  "compiler": {
    "name": "solc",
    "version": "0.4.24+commit.e67f0147.Emscripten.clang"
  },
  "schemaVersion": "2.0.1",
  "updatedAt": "2018-11-13T05:15:30.514Z"
}